{
  "contractName": "Auth",
  "abi": [
    {
      "anonymous": false,
      "inputs": [
        {
          "indexed": false,
          "internalType": "address",
          "name": "user",
          "type": "address"
        }
      ],
      "name": "LoginSuccessful",
      "type": "event"
    },
    {
      "anonymous": false,
      "inputs": [
        {
          "indexed": false,
          "internalType": "address",
          "name": "user",
          "type": "address"
        },
        {
          "indexed": false,
          "internalType": "string",
          "name": "email",
          "type": "string"
        }
      ],
      "name": "UserRegistered",
      "type": "event"
    },
    {
      "inputs": [
        {
          "internalType": "string",
          "name": "_email",
          "type": "string"
        },
        {
          "internalType": "string",
          "name": "_password",
          "type": "string"
        }
      ],
      "name": "register",
      "outputs": [],
      "stateMutability": "nonpayable",
      "type": "function"
    },
    {
      "inputs": [
        {
          "internalType": "string",
          "name": "_password",
          "type": "string"
        }
      ],
      "name": "login",
      "outputs": [
        {
          "internalType": "bool",
          "name": "",
          "type": "bool"
        }
      ],
      "stateMutability": "view",
      "type": "function"
    }
  ],
  "bytecode": "0x608060405234801561000f575f80fd5b50610a638061001d5f395ff3fe608060405234801561000f575f80fd5b5060043610610034575f3560e01c80633a7d280c146100385780633ffbd47f14610068575b5f80fd5b610052600480360381019061004d9190610464565b610084565b60405161005f91906104c5565b60405180910390f35b610082600480360381019061007d91906104de565b61018e565b005b5f805f3373ffffffffffffffffffffffffffffffffffffffff1673ffffffffffffffffffffffffffffffffffffffff1681526020019081526020015f206002015f9054906101000a900460ff16610110576040517f08c379a0000000000000000000000000000000000000000000000000000000008152600401610107906105ae565b60405180910390fd5b816040516020016101219190610638565b604051602081830303815290604052805190602001205f803373ffffffffffffffffffffffffffffffffffffffff1673ffffffffffffffffffffffffffffffffffffffff1681526020019081526020015f2060010154036101855760019050610189565b5f90505b919050565b5f803373ffffffffffffffffffffffffffffffffffffffff1673ffffffffffffffffffffffffffffffffffffffff1681526020019081526020015f206002015f9054906101000a900460ff161561021a576040517f08c379a000000000000000000000000000000000000000000000000000000000815260040161021190610698565b60405180910390fd5b60405180606001604052808381526020018260405160200161023c9190610638565b604051602081830303815290604052805190602001208152602001600115158152505f803373ffffffffffffffffffffffffffffffffffffffff1673ffffffffffffffffffffffffffffffffffffffff1681526020019081526020015f205f820151815f0190816102ad91906108b9565b50602082015181600101556040820151816002015f6101000a81548160ff0219169083151502179055509050507f48cac28ad4dc618e15f4c2dd5e97751182f166de97b25618318b2112aa951a2f338360405161030b9291906109ff565b60405180910390a15050565b5f604051905090565b5f80fd5b5f80fd5b5f80fd5b5f80fd5b5f601f19601f8301169050919050565b7f4e487b71000000000000000000000000000000000000000000000000000000005f52604160045260245ffd5b61037682610330565b810181811067ffffffffffffffff8211171561039557610394610340565b5b80604052505050565b5f6103a7610317565b90506103b3828261036d565b919050565b5f67ffffffffffffffff8211156103d2576103d1610340565b5b6103db82610330565b9050602081019050919050565b828183375f83830152505050565b5f610408610403846103b8565b61039e565b9050828152602081018484840111156104245761042361032c565b5b61042f8482856103e8565b509392505050565b5f82601f83011261044b5761044a610328565b5b813561045b8482602086016103f6565b91505092915050565b5f6020828403121561047957610478610320565b5b5f82013567ffffffffffffffff81111561049657610495610324565b5b6104a284828501610437565b91505092915050565b5f8115159050919050565b6104bf816104ab565b82525050565b5f6020820190506104d85f8301846104b6565b92915050565b5f80604083850312156104f4576104f3610320565b5b5f83013567ffffffffffffffff81111561051157610510610324565b5b61051d85828601610437565b925050602083013567ffffffffffffffff81111561053e5761053d610324565b5b61054a85828601610437565b9150509250929050565b5f82825260208201905092915050565b7f55736572206e6f742072656769737465726564000000000000000000000000005f82015250565b5f610598601383610554565b91506105a382610564565b602082019050919050565b5f6020820190508181035f8301526105c58161058c565b9050919050565b5f81519050919050565b5f81905092915050565b5f5b838110156105fd5780820151818401526020810190506105e2565b5f8484015250505050565b5f610612826105cc565b61061c81856105d6565b935061062c8185602086016105e0565b80840191505092915050565b5f6106438284610608565b915081905092915050565b7f5573657220616c726561647920726567697374657265640000000000000000005f82015250565b5f610682601783610554565b915061068d8261064e565b602082019050919050565b5f6020820190508181035f8301526106af81610676565b9050919050565b7f4e487b71000000000000000000000000000000000000000000000000000000005f52602260045260245ffd5b5f60028204905060018216806106fa57607f821691505b60208210810361070d5761070c6106b6565b5b50919050565b5f819050815f5260205f209050919050565b5f6020601f8301049050919050565b5f82821b905092915050565b5f6008830261076f7fffffffffffffffffffffffffffffffffffffffffffffffffffffffffffffffff82610734565b6107798683610734565b95508019841693508086168417925050509392505050565b5f819050919050565b5f819050919050565b5f6107bd6107b86107b384610791565b61079a565b610791565b9050919050565b5f819050919050565b6107d6836107a3565b6107ea6107e2826107c4565b848454610740565b825550505050565b5f90565b6107fe6107f2565b6108098184846107cd565b505050565b5b8181101561082c576108215f826107f6565b60018101905061080f565b5050565b601f8211156108715761084281610713565b61084b84610725565b8101602085101561085a578190505b61086e61086685610725565b83018261080e565b50505b505050565b5f82821c905092915050565b5f6108915f1984600802610876565b1980831691505092915050565b5f6108a98383610882565b9150826002028217905092915050565b6108c2826105cc565b67ffffffffffffffff8111156108db576108da610340565b5b6108e582546106e3565b6108f0828285610830565b5f60209050601f831160018114610921575f841561090f578287015190505b610919858261089e565b865550610980565b601f19841661092f86610713565b5f5b8281101561095657848901518255600182019150602085019450602081019050610931565b86831015610973578489015161096f601f891682610882565b8355505b6001600288020188555050505b505050505050565b5f73ffffffffffffffffffffffffffffffffffffffff82169050919050565b5f6109b182610988565b9050919050565b6109c1816109a7565b82525050565b5f6109d1826105cc565b6109db8185610554565b93506109eb8185602086016105e0565b6109f481610330565b840191505092915050565b5f604082019050610a125f8301856109b8565b8181036020830152610a2481846109c7565b9050939250505056fea2646970667358221220f2a9aef51f2be20b42b044bcf98182eb17928ba9cc6629bdbdf340f70b4c54d264736f6c63430008150033",
  "immutableReferences": {},
  "source": "// SPDX-License-Identifier: MIT\r\npragma solidity ^0.8.0;\r\n\r\ncontract Auth {\r\n    struct User {\r\n        string email;\r\n        bytes32 passwordHash;\r\n        bool registered;\r\n    }\r\n\r\n    mapping(address => User) private users;\r\n\r\n    event UserRegistered(address user, string email);\r\n    event LoginSuccessful(address user);\r\n\r\n    function register(string memory _email, string memory _password) public {\r\n        require(!users[msg.sender].registered, \"User already registered\");\r\n\r\n        users[msg.sender] = User({\r\n            email: _email,\r\n            passwordHash: keccak256(abi.encodePacked(_password)),\r\n            registered: true\r\n        });\r\n\r\n        emit UserRegistered(msg.sender, _email);\r\n    }\r\n\r\n    function login(string memory _password) public view returns (bool) {\r\n        require(users[msg.sender].registered, \"User not registered\");\r\n\r\n        if (users[msg.sender].passwordHash == keccak256(abi.encodePacked(_password))) {\r\n            return true;\r\n        } else {\r\n            return false;\r\n        }\r\n    }\r\n}\r\n",
  "sourcePath": "C:\\Users\\yuansoon\\Documents\\GitHub\\WAD_Assignment_new\\Blockchain_Assignment\\contracts\\Auth.sol",
  "compiler": {
    "name": "solc",
    "version": "0.8.21+commit.d9974bed.Emscripten.clang"
  },
  "schemaVersion": "3.4.16",
  "updatedAt": "2025-04-13T07:59:29.455Z",
  "devdoc": {
    "kind": "dev",
    "methods": {},
    "version": 1
  },
  "userdoc": {
    "kind": "user",
    "methods": {},
    "version": 1
  }
}